{
  "contractName": "HelloWorld",
  "abi": [
    {
      "inputs": [],
      "name": "getHelloMessage",
      "outputs": [
        {
          "internalType": "string",
          "name": "",
          "type": "string"
        }
      ],
      "stateMutability": "view",
      "type": "function",
      "constant": true
    }
  ],
  "bytecode": "0x60806040526040518060400160405280600b81526020017f48656c6c6f20776f726c640000000000000000000000000000000000000000008152506000908051906020019061004f929190610062565b5034801561005c57600080fd5b50610166565b82805461006e90610105565b90600052602060002090601f01602090048101928261009057600085556100d7565b82601f106100a957805160ff19168380011785556100d7565b828001600101855582156100d7579182015b828111156100d65782518255916020019190600101906100bb565b5b5090506100e491906100e8565b5090565b5b808211156101015760008160009055506001016100e9565b5090565b6000600282049050600182168061011d57607f821691505b6020821081141561013157610130610137565b5b50919050565b7f4e487b7100000000000000000000000000000000000000000000000000000000600052602260045260246000fd5b610232806101756000396000f3fe608060405234801561001057600080fd5b506004361061002b5760003560e01c80633493b37c14610030575b600080fd5b61003861004e565b6040516100459190610119565b60405180910390f35b60606000805461005d9061018a565b80601f01602080910402602001604051908101604052809291908181526020018280546100899061018a565b80156100d65780601f106100ab576101008083540402835291602001916100d6565b820191906000526020600020905b8154815290600101906020018083116100b957829003601f168201915b5050505050905090565b60006100eb8261013b565b6100f58185610146565b9350610105818560208601610157565b61010e816101eb565b840191505092915050565b6000602082019050818103600083015261013381846100e0565b905092915050565b600081519050919050565b600082825260208201905092915050565b60005b8381101561017557808201518184015260208101905061015a565b83811115610184576000848401525b50505050565b600060028204905060018216806101a257607f821691505b602082108114156101b6576101b56101bc565b5b50919050565b7f4e487b7100000000000000000000000000000000000000000000000000000000600052602260045260246000fd5b6000601f19601f830116905091905056fea26469706673582212200be4204a05a40c5d549c540bd13b2d19bd7fa8d171a2b2ac9b5874ac973118fa64736f6c63430008000033",
  "immutableReferences": {},
  "source": "// SPDX-License-Identifier: MIT\r\npragma solidity ^0.8.0;\r\n\r\ncontract HelloWorld {\r\n\r\n    string private helloMessage = \"Hello world\";\r\n\r\n    function getHelloMessage() public view returns (string memory) {\r\n        return helloMessage;\r\n    }\r\n\r\n}",
  "sourcePath": "C:\\Users\\swath\\workspace\\firstProject\\contracts\\HelloWorld.sol",
  "compiler": {
    "name": "solc",
    "version": "0.8.0+commit.c7dfd78e.Emscripten.clang"
  },
  "schemaVersion": "3.4.16",
  "updatedAt": "2026-03-12T17:37:27.702Z",
  "networkType": "ethereum",
  "devdoc": {
    "kind": "dev",
    "methods": {},
    "version": 1
  },
  "userdoc": {
    "kind": "user",
    "methods": {},
    "version": 1
  }
}